:100000001022002035010000310100003101000004
:1000100000000000000000000000000000000000E0
:10002000000000000000000000000000310100009E
:10003000000000000000000031010000310100005C
:1000400031010000310100003101000031010000E8
:1000500031010000310100003101000031010000D8
:1000600031010000310100003101000031010000C8
:10007000310100000000000000000000310100001C
:1000800000000000310100003101000031010000DA
:100090003101000031010000310100003101000098
:1000A0003101000031010000310100003101000088
:1000B00031010000310100003101000010B5064C93
:1000C0002378002B07D1054B002B02D0044800E019
:1000D00000BF0123237010BDD001002000000000EC
:1000E000C05F0000084B10B5002B03D0074908483B
:1000F00000E000BF07480368002B00D110BD064B8D
:10010000002BFBD09847F9E700000000D401002045
:10011000C05F0000C05F00000000000010B5024B8F
:100120009847024B984710BDC1020000650E0000C1
:10013000FEE7000010B5104A104B9A4209D00F4B51
:100140000D4A03E011681960043304320C498B42F4
:10015000F8D30C4B02E000221A6004330A4A93429F
:10016000F9D30A4AFF210A4B8B439360094B984706
:10017000094B9847FEE7C046C05F00000000002022
:10018000D0010020D00100201002002000ED00E08E
:10019000000000007D310000710C000010B58022CD
:1001A0005200C023DB055A608221C905094B8B62CE
:1001B000C0231B068B624823CA5C01208243024392
:1001C000D2B2CA5434228B5C0F24A3430343DBB264
:1001D0008B5410BD00010040054AD1698023DB0229
:1001E0000B43D361402184235B00024AD150704706
:1001F00000080040001C004010B5064B9847064B15
:100200009847064B9847020005490648064B984711
:1002100010BDC046D90100009D010000310800005A
:100220000048004208020020DD02000030B58223B1
:10023000DB054022995C0125A94301242143C9B271
:1002400099543020195C313A914303221143C9B2C9
:10025000195441215A5CAA432243D2B25A541A5C1F
:1002600032390A4030210A43D2B21A5430BD00005C
:10027000064B4021D02299500331083A9950044A44
:10028000D3693F390B43D3617047C046001C00401F
:100290000008004010B5054B984700220449054866
:1002A000054B9847054B984710BDC04671020000AA
:1002B00000080042FC010020410500002D02000062
:1002C00010B5034B9847034B9847034B984710BD15
:1002D00035080000F90100009502000070B5040027
:1002E0000D0000280DD0002909D00120392206492F
:1002F000064B984729002000054B984770BD002009
:10030000F4E70020F2E7C046085B0000B9050000F2
:10031000A907000070B504000D00431E9841C0B24B
:100320004E220449044B984729002000034B98476C
:10033000002070BD085B0000B9050000E107000067
:10034000F8B5CE46474680B506000D009046994662
:1003500000281AD0002A1AD04B46002B19D10020B1
:1003600067221C491C4FB847340030001B4B98478C
:100370000100060048461A4B984748424841C0B21F
:1003800069221449B847002709E00020E8E7002067
:10039000E6E70120E4E7BF19BFB2B94515D920004F
:1003A000104B9847290020000F4B98470028F9D0A0
:1003B000290020000D4B98474346D855012EEAD915
:1003C0007B1C000A4246D054E5E738000CBC90463E
:1003D0009946F8BD085B0000B9050000F50700006C
:1003E000F1080000150800000B08000029080000B3
:1003F00070B504000D00160000280ED000290AD0A8
:10040000012034220649074B98472368320029000F
:100410002000984770BD0020F3E70020F1E7C046B8
:10042000245B0000B905000070B504000D00160043
:1004300000280ED000290AD001203D220649074B92
:1004400098476368320029002000984770BD00205B
:10045000F3E70020F1E7C046245B0000B905000087
:10046000F8B505000E001700002823D0002923D07E
:10047000002A23D10020F1221149124B98472C0069
:1004800008342000104B98470028F8D00025715DF3
:1004900020000E4B984720000B4B98470028FAD0BD
:1004A0000135BD42F3D32000094B98470028FAD00C
:1004B0002800F8BD0020DEE70020DCE70120DAE7B5
:1004C000385B0000B90500009F0B00008F0B000097
:1004D000A90B0000F8B5CE46474680B5051E8846F4
:1004E00091461FD000291FD0002A1FD1002086224C
:1004F00052000F490F4B984700262C00083420006B
:100500000D4B98470028F8D043469F1920000B4B0D
:100510009847387001364E45EFD330000CBC9046FA
:100520009946F8BD0020E2E70020E0E70120DEE781
:10053000385B0000B9050000B50B0000970B000008
:1005400070B504000D00002814D0002910D001203F
:1005500034220949094B9847200008302900084BEC
:100560009847002803D1074B6360074B236070BD99
:100570000020EDE70020EBE7385B0000B905000044
:10058000510B0000D50400006104000010B5040008
:10059000431E9841C0B253220449054B984720009E
:1005A0000830044B9847002010BDC046385B00005F
:1005B000B90500007D0B0000002800D100BE704787
:1005C0000300064A1268002A04D0044A1068C318BF
:1005D000136070470249014A1160F6E7EC01002000
:1005E0001022002001204042704780239B014B6075
:1005F000002070470120704700207047024B9C4646
:100600006044800AC0B2704700BCFFBD30B5524B99
:10061000984200D188E0514B984200D18FE00022EF
:10062000038CDB0714D4038C9B07FCD103789B0756
:1006300009D503780224A3430370038C9B07FCD1E4
:10064000038C9B07FCD401230370038C9B07FCD114
:10065000038CDB07FCD48285CA00521A9400404BFD
:100660001B199A784270DA7882701A79C270DB8826
:100670000381038C5B05FCD1CB005B1A9A00384BDD
:100680009B181B894381038C5B05FCD1CB005B1A53
:100690009A00334B9B189B7A0373038C5B05FCD148
:1006A000CB005B1A9A002E4B9B18DB7A4373038CAA
:1006B0005B05FCD1CB005B1A9A00294B9B189B89E8
:1006C000C381038C5B06FCD4CB005B1A9A00244BDD
:1006D0009B18DB890382038C1B06FCD4CB005B1ABE
:1006E0009A001F4B9B181B8A4382038CDB05FCD4AA
:1006F000CB005B1A9A001A4B9B185B8A8382038C8F
:100700009B05FCD4164ACB005D1AAC0025001419D9
:10071000247D047700248462521953780370038C7B
:100720009B07FCD1002030BD0E4B1B681A02E02451
:10073000E4001440DB0807221A40224370E7094B0B
:100740001B689A091202E024E40022405B0A072495
:1007500023401A4364E7C046004400420048004278
:10076000545B00002060800010B50B4B98470200DE
:100770000020002806D08D2208490020084B984709
:10078000002010BDC3001B1A9900064BCB5C9A4297
:10079000F7D00130C0B2ECE7FD050000705B00004F
:1007A000B9050000545B000070B505000C00431E45
:1007B0009841C0B2DD220649064B98472C602000C4
:1007C000054B984701002000044B984770BDC04678
:1007D000705B0000B9050000690700000D0600000D
:1007E0000268137802210B43DBB21370138C9B0752
:1007F000FCD1704703685A89120903231340032B65
:1008000001D0022070470120FCE70368987901239A
:10081000184070470268137E02210B43DBB2137647
:10082000138C5B05FCD170470368988C80B27047CD
:100830000020704710B5084B5A685A60074B98471C
:10084000074B9847074B9847074B9847FF20074BA4
:100850009847074B984710BD00400041B109000080
:10086000CD090000A5090000090A0000690900007F
:10087000750800009022D205137802218B43137073
:10088000704710B582B0EFF31083019372B69023D6
:10089000DB051A78012422431A709860D9609023EE
:1008A000DB051B79DB07FAD49023DB051869019B74
:1008B00083F3108802B010BD10B582B0EFF310833F
:1008C000019372B69023DB051A780124A2431A70B3
:1008D0009860D9609023DB051B79DB07FAD490235D
:1008E000DB051869019B83F3108802B010BD00007E
:1008F00010B582B0EFF31083019372B69023DB053D
:100900001A78012422431A709860D9609023DB057D
:100910001B79DB07FAD4044B18685968019B83F3F1
:10092000108802B010BDC0461000004810B582B05B
:10093000EFF31083019372B69023DB051A7801243C
:10094000A2431A709860D9609023DB051B79DB07FE
:10095000FAD4044B18685968019B83F3108802B0DD
:1009600010BDC04610000048C30707D5094A0A4B0E
:100970001A62094B5A68094B1A42FAD1830707D504
:10098000074A054B5A62044B5A68044B1A42FAD183
:100990007047C04606010100001C0040FD07000032
:1009A00006010A000122014B1A717047000800403D
:1009B000054AD3691B0A1B02F82149010B40D36188
:1009C000012313617047C046001400400D4B022202
:1009D0001A7509325A750B4B9B695B07FBD4094B9F
:1009E0009B695B07FBD40722064B9A75054BDB68B6
:1009F000DB06FBD5034A137D802149420B43DBB262
:100A0000137570470010004070470000024B9C4671
:100A10006044800AC0B2704700FCFFBD10B50B4BAC
:100A2000984702000020002806D0094A0949002002
:100A3000094B9847002010BD83001B189900074BF5
:100A4000CB5C9A42F7D00130C0B2ECE70D0A00004F
:100A50003A020000D85B0000B9050000885B000086
:100A600070B50400384B9847E369DB071DD4830059
:100A70001B189A00354B9B185A681C231A40E369CF
:100A80009B07FCD123689B0709D5236802218B4370
:100A90002360E3699B07FCD1E3699B07FCD4012336
:100AA00013432360E3699B07FCD1E369DB07FCD4B4
:100AB00083001B189A00254B9B185B682360E36931
:100AC0009B07FCD183001B189A00204B9B189B6846
:100AD0006360E3695B07FCD183001B189A001B4B22
:100AE0009B185B689A040BD4C022D201134207D131
:100AF00083001B189A00154B9B189B89A38115E056
:100B000083001B189A00114989188A89A389D20485
:100B1000D20C5B0B5B031343A3818B7B07221A4030
:100B2000A3895203DB04DB0C1343A381074A830030
:100B30001D18A9000D005118C97BA1735219127C10
:100B40003023E254002070BD1D0A0000885B0000C5
:100B500070B505000C00431E9841C0B2B422044990
:100B6000044B98472C602000034B984770BDC0464B
:100B7000D85B0000B9050000610A00000268136834
:100B800002210B431360D3699B07FCD170470368B4
:100B900089B2198570470368188DC0B27047036821
:100BA000187E01231840704703681B7E5B080120F4
:100BB0001840704703681B7E9B080120184070474F
:100BC000F0B589B016001F000096019702900391BE
:100BD00002000B000E980F99204CA04700283AD134
:100BE0001F4D0096019732003B0010981199A847BD
:100BF00006000F00029A039B0E980F99A8470A005F
:100C00000100184C049105921300020030003900D5
:100C1000A047154E129A139BB04706900791009A71
:100C2000019B0E980F99B04700900191109A119B6B
:100C300002980399B04702000B0000980199A84759
:100C4000049A059BA04702000B0006980799074CE1
:100C5000A04709B0F0BD00980199FAE7A50E000081
:100C600001280000991A00000123000079140000F7
:100C7000F0B58FB0344B984700213448344B984737
:100C80000027002658E00DAC0223220000212F4847
:100C9000304EB047267863781B02F6180135092DCF
:100CA000F1DD0024002530002B4B9847049005917E
:100CB00000222A4B029203930022294B00920193B7
:100CC00022002B0020002900264CA047264B9847E5
:100CD0000790264D0798A847089009910022244BB9
:100CE000244CA0470A900B910799381C224B984737
:100CF000A84702000B000A980B99204CA04700223D
:100D0000164B1F4CA047184B9847041C391C1D4B11
:100D10009847A847271C1C4A1C4B1D4DA847002874
:100D2000D7D1201C114B984700900191089A099B3C
:100D300031001848184DA8470023184A934201D89B
:100D40000133FAE70025AAE71D0100000802002090
:100D50001503000041030000192F0000000014409B
:100D600000FEAF40C10B00002D300000892F0000B5
:100D700000ECB34001230000010F00000128000037
:100D8000991A000041110000F168E388B5F8E43ECB
:100D9000D90E0000F45B0000B53A000060EA0000E4
:100DA00010B50B00002809D111001800054B984719
:100DB000002800DB10BD01204042FBE7012040423B
:100DC000F8E7C0461D0E000010B50B0001380228E0
:100DD00009D811001800054B9847002800DB10BD0A
:100DE00001204042FBE701204042F8E7410E0000AD
:100DF00070B50600064D2B6898680021054CA04789
:100E00002B6858680021A047034B1E6070BDC04688
:100E100000000020E93A0000F001002010B50400B5
:100E2000054B1868002804D08AB22100034B98476C
:100E300010BD0020FCE7C046F0010020290400009E
:100E400010B50400054B1868002804D08AB22100B0
:100E5000034B984710BD0020FCE7C046F00100207E
:100E6000F103000010B5044C2000044B984720000B
:100E7000034B984710BDC046FC0100208D050000C3
:100E8000F10D00008446101C62468C46191C634616
:100E900000E0C0461FB501F0D1F9002801D40021BF
:100EA000C8421FBD10B501F02BF94042013010BD02
:100EB00010B501F0C3F9002801DB002010BD0120AE
:100EC00010BDC04610B501F0B9F9002801DD0020C1
:100ED00010BD012010BDC04610B501F04BF900282F
:100EE00001DC002010BD012010BDC04610B501F08E
:100EF00041F9002801DA002010BD012010BDC046D4
:100F0000F8B557464E464546DE46E0B54702460030
:100F100088467F0A360EC40F002E47D0FF2E24D0FD
:100F2000FB008027FF041F43002399469A467F3E1B
:100F300043465D025800DB0F6D0A000E984643D011
:100F4000FF283BD0EB0080250022ED041D437F38B5
:100F50003618731C41469B464B46614013430F2B8A
:100F600064D875489B00C3589F46002F42D1082380
:100F70009946063BFF269A46DAE74146022A28D0E0
:100F8000032A00D1CEE0012A00D0ACE011400020BD
:100F90000022CCB24002D205400AE40710432043AD
:100FA0003CBC90469946A246AB46F8BD002F15D1F1
:100FB00004239946033B00269A46B9E7FF20022204
:100FC000002DC5D00322C3E7002D19D10020012236
:100FD000BEE70124FF220C400020DBE7380002F0CE
:100FE000AFF87626431F9F4000237642361A994673
:100FF0009A469DE70C239946093BFF269A4697E7B8
:10100000280002F09DF8431F9D4076235B42181A8A
:1010100000229DE780200024C003FF22BAE73D00A4
:101020005246ABE73D0021005246A7E73B0C9C46E9
:101030002A04120C2B0C1400604665463F043F0C3A
:101040007C4342435D437B43270C9B18FF18BA4205
:1010500003D980235B029C46654424043A04240C93
:10106000121993015C1EA3413F0C920E7D191A4385
:10107000AD0115432B0104D501235E466A081D40CE
:10108000154332007F32002A25DD6B0704D00F2381
:101090002B40042B00D004352B0103D53200274B05
:1010A00080321D40FE2A94DC0124A801400AD2B2FD
:1010B0000C406FE78020C003074207D0054205D1EE
:1010C00028434002400A4446FF2263E73843400277
:1010D000400AFF225EE70124A31A1B2B05DD0C400A
:1010E0000022002056E75E46CBE72A002020DA40A7
:1010F000C31A9D402B005D1EAB4113435A0704D019
:101100000F221A40042A00D004335A0104D50124C6
:1011100001220C4000203DE701249B01580A0C40AD
:10112000002237E780200124C00328434002400A00
:101130000C40FF222EE7C046205C0000FFFFFFF7B7
:10114000F0B54F46D64646464400C0B5C20F4702EA
:101150004802400A844666467B0A4800C90F9A4600
:10116000240E1500DB00000E8946F600FF2800D192
:101170008FE001214F464F403900914266D0221A3C
:10118000002A00DC9DE000283DD1002E00D18BE03C
:10119000511E002900D0B5E001249B1B5A0144D503
:1011A0009B019F09380001F0CBFF0538874084423E
:1011B00000DD96E0041B3A0020200134E240041BCD
:1011C000A7403B005F1EBB41002413435A0704D0D5
:1011D0000F221A40042A00D004335A0127D50134C3
:1011E000FF2C00D179E001229B015B0AE4B22A4086
:1011F0005B02E405580AD207204310431CBC90460A
:101200009946A246F0BDFF2CE0D08021C9040E43D0
:101210001B2A7BDC31002020D140821A9640721EAE
:1012200096410E439B1B5A01BAD45A07D0D10122D2
:10123000DF082A40FF2C33D1002F00D1A8E0802303
:10124000DB033B435B025B0AFF24D1E7211A002941
:101250004CDD00282AD0FF2CB8D08020C0040643E3
:101260001B2900DDAFE030002027C840791A8E40EE
:10127000711E8E4106439B195901D6D50134FF2CAE
:1012800000D185E001227A491A405B080B401343E4
:101290009CE7002E00D070E76BE73B1EC5D1002213
:1012A0007B025B0AE4B2A3E714008FE7002E4DD067
:1012B000481E002857D19B1901245A01B5D5022494
:1012C000E0E7002A25D1621CD2B2012A72DD9F1B01
:1012D0007A0135D5F71A0D0064E7012200232A4070
:1012E00086E73B00634A241A13406FE700296CD15C
:1012F000611CC8B201284EDDFF2949D09B195B084B
:101300000C0063E7FF2A41D00A0081E701269B1BFE
:1013100089E7002C1CD0FF2821D08024E40452420D
:1013200023431B2A00DD96E01C002025D440AA1A86
:1013300093405A1E93412343F31A04000D002DE7F6
:10134000002F00D02EE700220024A9E70C003DE783
:10135000002B58D0D243002AEED0FF28E1D1330031
:10136000FF240D0032E7FF2910D0010078E7002BA1
:101370006ED0FF24002E00D128E780225146D203F0
:10138000114203D06146114200D13300FF241DE712
:10139000FF2400232CE7002CE9D1002B63D0002E82
:1013A00000D113E79B195A0100D43EE7314A0C00E3
:1013B00013400BE7002C1ED1002B2FD1002E4FD055
:1013C00033000D0002E7012655E7002C1FD1002B4A
:1013D00043D0C94300290BD0FF2839D01B2944DC56
:1013E0001C002027CC40791A8B40591E8B41234387
:1013F0009B19040040E7002B1AD1002E24D180272E
:101400000022FF031BE7330004000D00DEE6FF2887
:101410001ED08024E40449422343DFE7002E00D19C
:10142000D4E69F1B7A0100D437E7F31A0D00CDE60E
:10143000FF24002E00D1C9E680225046D20310427C
:10144000A4D060461042A1D133000D00FF24BDE6B8
:101450003300FF24BAE601236EE733000400B5E64B
:10146000002700221CE73300B0E60123C0E7C04696
:10147000FFFFFF7DFFFFFFFBF8B54546DE46574601
:101480004E460C03E0B54E00C90F88460D00610AB8
:10149000440F0C43C70019035800DB0F9B464B0A4F
:1014A000510F0B43760D400D1900D200D84500D1E5
:1014B000AEE0351A002D00DCF6E000280FD1134312
:1014C00000D1DBE06B1E002B00D037E1BA1A974247
:1014D000BF41641A7F42E41B0126170024E0C64B7B
:1014E0009E424DD080231B041943382D00DD07E1B7
:1014F0001F2D00DD38E12020431B9A460B0050468B
:101500008340994613004846EB4018430300504679
:101510008240501E8241E9401A43BA1A611A97422A
:10152000A441170064420C1B230262D56402650AC1
:10153000002D00D1DFE0280001F002FE0300083B8F
:101540001F2B00DDD2E020223C00D21A9D40D44067
:101550009F4025439E4200DDC4E09E1B731C1F2B51
:1015600000DDF1E0202238002900D21AD840914055
:1015700097402C000143781E8741DC4000260F4332
:101580007B0709D00F233B40042B05D03B1DBB42FA
:10159000BF417F42E4191F0023022CD5964B013630
:1015A0009E4200D19AE04546944BFF081C406007DC
:1015B000760564020743240B760D00212403230BD8
:1015C0000C0D8F4A24051C431440330523435B0054
:1015D000ED075B082B43380019003CBC9046994648
:1015E000A246AB46F8BD6446044300D111E20400B4
:1015F00067467B07C6D145466007FF080743E408F6
:101600007D4B9E4230D024037605240B760DD4E723
:10161000331A9A46002B78DD002831D0764886426E
:10162000AED08020000401435346382B00DCE9E0B3
:101630000A43511E8A410021D219BA42BF410919F9
:101640007C4217000C192302D3D56B4B01369E4206
:1016500000D13AE10120694B1C407B0807401F4341
:10166000E007074364088BE723003B4300D1CBE14D
:101670008022120314432403240B9EE72E007FE7ED
:101680000800104300D1B4E0581E002800D0DEE06E
:10169000BA18BA429B4164185B42E418170001264D
:1016A0002302A6D50226D5E7002D6ED1701C400579
:1016B000400D012800DCF9E0B81A844687428041D9
:1016C000E51A40422D1A280200D489E0D71BBA42FD
:1016D00092411C1B5242A51AD84629E745460024D0
:1016E00000276AE7454CF61A2C4049E73D002838A8
:1016F000854000272EE7380001F022FD20301DE74D
:101700000A43511E8A41002107E7002B00D0F3E075
:10171000701C43055B0D012B00DCADE0364B98429D
:1017200000D1D1E0BA18BA42BF4164187F42E4192F
:10173000E707520817436408060021E72E48854250
:1017400000D193E01D00D0E629001F3EF140202B80
:1017500000D18DE04022D31A9D402F437D1EAF4122
:1017600000240F43002644E72B000800203BD8400C
:101770000300202D00D17DE04020451BA9400A43F5
:10178000511E8A4100211A43C7E6002E50D01A4E3E
:10179000B04257D080266B429946360434434B46BC
:1017A000382B00DDD6E01F2B00DD35E12026F51AB1
:1017B0002600AE40B2463E00DE40AC4635005646FE
:1017C0002E436546AF407D1EAF41DC403743D71BFB
:1017D000BA4292410C1B5242A41A0600D846A3E614
:1017E000644667462C4300D0A2E600250026002769
:1017F00006E71E00C4E6C046FF070000FFFF7FFFAC
:10180000FFFF0F801F2B63DC2020C31A08009840C5
:101810009C46834653461000D84003005846184360
:1018200063469A40531E9A4153460243D94003E708
:1018300026003E4306D0EB439946002BC7D0944E7A
:10184000B042ACD10C0017000600D84698E6904B89
:101850009A450BD08246E7E6002800D09EE01800AB
:10186000104300D1E9E01C001700D846884E87E6F7
:10187000002572E7002182E723003B43002E00D0C1
:10188000ABE0002B00D1E7E00B00134300D177E67B
:10189000BA18BA42BF4164187F42E419230200D447
:1018A000F2E07C4B17001C40060069E6200038433C
:1018B000002ED1D100285BD11C00144300D1A8E038
:1018C0001C001700D8465BE606000024002797E6B8
:1018D00050460B002038C34099465346202B00D178
:1018E00095E0402350461B1A99400A43511E8A41F5
:1018F0004B4600211A439FE6002E30D126003E437E
:1019000067D0DB439A46002B1CD0614EB04260D0BA
:101910005346382B00DD96E01F2B00DD9FE020268C
:10192000F31A26009E409C46B34653463E00DE40D6
:1019300033005E461E4363469F407B1E9F415346D5
:10194000DC403743BF189742924164185242A418B2
:10195000060078E627437C1EA741002437E74C4E5B
:10196000B04236D080265B4236049A463443CFE7F5
:101970001800104300D103E6B81A84466745AD410C
:10198000E01A6D42401B050200D42CE6D71BBA4278
:1019900092411C1B5242A41AD846F1E5180010438C
:1019A00000D163E7F808670707438020E4080003D5
:1019B000044208D0DD08054205D1D2085907114379
:1019C0000F002C00D8467B0FE4001C43FF00304E74
:1019D000D6E50C0017000600D2E5002B38D00B002E
:1019E000134300D142E7F808670707438020E40863
:1019F00000030442E7D0CB080342E4D1D2084907F0
:101A000011430F001C00DEE700270024D5E500216C
:101A10006BE700250027F3E54E462500203EF54004
:101A20004B462E00202B2DD04025ED1AAC402743ED
:101A30007C1EA74100243743C9E6802400252403E7
:101A4000134E0027DCE527437C1EA741002479E7DD
:101A50000C0017000E4E93E50C00170090E556465B
:101A60002300203EF34099465346202B0ED04023BE
:101A700056469B1B9C4027437C1EA7414B46002497
:101A80001F435FE70024D2E71700B2E50024F2E726
:101A9000FF070000FFFF7FFFF0B557464546DE46D3
:101AA0004E46E0B54C000E0387B0834692461D00BB
:101AB0008046360B640DCF0F002C4FD06F4B9C42ED
:101AC00035D08023420F1B04F6001343334399465D
:101AD000C30098466A4B00269C4600236444039347
:101AE0002B031B0B9B466B00ED0F50465B0D0195C6
:101AF0005ED0624A934253D05A46D1008022400FB2
:101B0000120402430A4393465246D1005C4A94466B
:101B1000002263443800684084460290E41A164369
:101B20000F2E00D9B4E0574BB6009B599F460300D7
:101B3000334399466CD10023984602330826039319
:101B4000CEE7CB464146039A0197022A65D1019B15
:101B50004A4C9C460023002298466BE00300334326
:101B600099464ED0002E00D1BCE1300001F0E8FAD9
:101B700003000B3B1C2B00DDACE11D22D31A5A469F
:101B80000100DA4008398E401300334399465B4622
:101B90008B40984600233C4C0026241A03939FE771
:101BA00051465A46114329D1002293460232B1E7E9
:101BB000594601431ED05B46002B00D19EE158469A
:101BC00001F0BEFA03000B3B1C2B00DD8FE102008D
:101BD0005946083A91408B461D21CB1A5146D940AF
:101BE0000B0059460B4351469B469140264B002221
:101BF0001B1A8FE7002301229B468BE751460322E5
:101C000088E700239846013304260024039367E7FE
:101C10000323B14603930C2662E7032A00D15CE25A
:101C2000019B012A00D0E4E113409C4600230024DC
:101C30000022984600211203130B0A0D12051A43C5
:101C40002305124C40462240134362465B00D207F4
:101C50005B081343190007B03CBC90469946A24666
:101C6000AB46F0BD002380229C4612039846034CED
:101C7000E0E70023014C00229846DBE7FF07000065
:101C800001FCFFFF605C00000DFCFFFFFFFF0F8009
:101C9000D94500D939E100D134E1002346464D460B
:101CA0009A46013C5B460A0E1B021A430B02170CB4
:101CB000039313041B0C3900280090460193FEF790
:101CC000FBFD0200019B83465A43280039009146E0
:101CD000FEF72CFE350C09040D43A9450DD95B46D2
:101CE0004544013BA84500D93AE1A94500D837E170
:101CF00002235B429C464544E3444B46EB1A3900C1
:101D000018000493FEF7D8FD019B050043433900FA
:101D100004989946FEF70AFE330409041B0C0B4392
:101D2000994509D943446A1E984500D91AE1994555
:101D300000D817E1023D43444A469B1A5A46120412
:101D40002A4303999346100C0A0C914609045A46FB
:101D5000090C4E460D001204120C454305915143E7
:101D60007243704352190E0CB218954203D9802564
:101D70006D02AC466044150C09041204090C2818C5
:101D80005218834200D2CEE000D1C8E01D1A53465B
:101D90009E1AB24592415242AB1A9A46984500D1DA
:101DA00017E139001800FEF787FD019B050043434A
:101DB000390050460493FEF7B9FD04980B04310C2A
:101DC0001943884209D941446B1E884500D907E16F
:101DD000884200D804E1023D4144049BCB1A18001C
:101DE00039000493FEF768FD019B824643433900A6
:101DF00004980193FEF79AFD01980B043104090C35
:101E0000194388420DD953464144013B884500D9C6
:101E1000E8E0884200D8E5E002235B429C4641446A
:101E2000E244019B2D04CE1A51462943059D4F469D
:101E30002A000B04080C1B0C5A4345437B43784390
:101E40005B19170CFB189D4203D980256D02AC4627
:101E500060441D0C12041B04120C28189B188642A7
:101E600000D293E000D18EE001231943A04BE31888
:101E7000002B00DC99E04A0700D09EE05A46D201D0
:101E800006D55A469B4B1A4080239346DB00E31845
:101E9000994A934268DD0123029A984C1A40002324
:101EA000944698460022C5E680224B461203134210
:101EB0000AD05B46134206D11A431203120BAC46FA
:101EC00088468E4CB6E64B461A431203120BBC46AC
:101ED0008A4CAFE603005A46283B9A4000239146BD
:101EE000984657E6584601F02BF9203040E60300AB
:101EF0005246283B9A400021934677E601F020F9AC
:101F000020305FE6884500D2C7E64B46DE075D0815
:101F100043465B081E434346DB079A46C2E600255C
:101F2000924500D333E7039E5946B446E244B24596
:101F3000AD416D424544EB180139984507D29842AE
:101F400000D97FE000D1BCE01D1A8B461FE7984501
:101F5000FAD1039D5545F2D943468B461D1A16E723
:101F60009B46CAE61500E7E65A46C90852070A43E7
:101F70005B0590465C0D5A460123029952021940B6
:101F8000120B8C4656E6002B00D16FE746444A1EE2
:101F9000B04529D91100864200D065E7039A9342E3
:101FA00000D061E762E7012149420120C21A382AC4
:101FB00021DD029B03409C4638E60F220A40042A9A
:101FC00000D15BE70A00111D9142924152429344B5
:101FD00054E7474BE318002BE5DD01225242F2E7BC
:101FE0001D00FAE69A461CE7B04239D86ED01100BF
:101FF0003AE702933AE71F2A3CDC20239B1A0C00A5
:102000005846994098404B1E99415B46D440D34076
:10201000204308431A00430709D00F230340042B31
:1020200005D00100081D88429B415B42D218130273
:102030003AD50123029A01241A4000239446984677
:102040000022F7E5022149428C46039DE344AC4659
:10205000E244AA45AD416D424544ED182D1A96E67D
:102060008A1E03994D008D428941494241447618A8
:1020700003958FE71F204042C31A5846D8400300FB
:10208000202A28D040205D46821A954029434A1EC6
:1020900091411943072300220B4009D00F2300224E
:1020A0000B400800042BBDD1010053075202120B54
:1020B000C9081943012388460299002419408C4617
:1020C000B8E55245BED88B46002560E6039D9D428B
:1020D000C6D3110062E70025D8E780225B461203D1
:1020E0001A43019B1203120B9C468846034CA1E540
:1020F000FF030000FFFFFFFEFE070000FF070000D8
:10210000F0B54F464646D6465C00C0B51F03DB0F10
:102110009A46174B0E034D0084468046360B6D0DD4
:10212000C90F91463F0B640D01209D4208D09C428F
:1021300001D0A5420BD01CBC90469946A246F0BDEA
:1021400063463343F7D1AC42F5D13A43F3D1012092
:10215000BE42F0D1C845EED1514507D0002DEAD19D
:1021600063461E433000461EB041E4E70020E2E72C
:10217000FF070000F0B54546DE4657464E46E0B53F
:102180001F033D0B2C4F0E034C00AB465D008446F5
:10219000360B640DC90F90466D0DDB0FBC422AD083
:1021A000254FBD422DD0002C0FD130430700814672
:1021B00078427841C0B2002D17D15F463A4314D11E
:1021C0004B460020002B0AD006E0002D02D15846D5
:1021D000024301D0994218D04842012108433CBC37
:1021E00090469946A246AB46F0BD0028F2D00120A9
:1021F000013B1843F3E737000743D1D002204042A8
:10220000EDE75F461743CED0F8E7AC42E4DC03DAF3
:10221000481E01210843E2E75E45DDD806D00020D4
:102220005E45DCD20123481E1843D8E7C445D3D805
:102230000020C445F6D3D2E7FF070000F0B54E46B4
:102240004546DE4657465C00E0B51F03DB0F994666
:102250002A4B0E034D00C90F8446360B6D0D8B467D
:1022600090463F0B640D9D4220D0244B9C4222D0CF
:10227000002D12D1304343424341DBB2002C1FD02A
:10228000002B0CD04B460120013B034318003CBC03
:1022900090469946A246AB46F0BD002C16D0CB45E1
:1022A00017D05B46594201230B43EFE7310002236D
:1022B0000143EBD1D9E7390002231143E6D1D7E737
:1022C0003A43DDD100230028E0D0EAE73A43E6D1E3
:1022D000E7E7A542E5DC05DBBE42E2D807D00023F4
:1022E000BE42D3D25946012301390B43CEE7C44540
:1022F000D7D80023C445F5D3C8E7C046FF07000080
:10230000F0B557464546DE464E46E0B50C039846C6
:102310004E00230B87B0070092469B46760DCD0FEB
:10232000002E6BD06D4B9E4235D080245B46420F11
:102330002404DB0014431C43C3009946684BA346A6
:102340009C46002300276644029343461C035A0020
:10235000DB0F5046240B520D984600D176E05F4BC0
:102360009A426DD08023410F1B040B435C49E4006B
:102370008C461C43C300002062444146B6186940A5
:10238000721C0191944607430F2F00D9B0E0554AC3
:10239000BF00D25997465B460343994600D087E079
:1023A00000239B46023308270293CEE74246019260
:1023B000022867D0032800D10EE2012800D062E194
:1023C000002300240022994601990140CDB200214A
:1023D00012030B0D120B1B051343434A2405134034
:1023E0001C436400ED0764082C434846210007B0F5
:1023F0003CBC90469946A246AB46F0BD0343994685
:102400004FD05B46002B00D189E1584600F098FE82
:1024100003000B3B1C2B00DD7AE11D22D31A3A008E
:1024200001005C46DA4008398C4013008F4023439A
:102430009B46B94600232D4E0027361A029384E7A7
:10244000534623432AD10024022096E753462343D0
:1024500020D0002C00D157E1200000F071FE0300D5
:102460000B3B1C2B00DD49E11D21CB1A514602001C
:10247000D9405346083A944093400C431B4A121AE1
:1024800000207AE70125019B144C1D400023002207
:1024900099469CE70024002201206EE75346032062
:1024A0006BE700239B4601330427002602934CE789
:1024B000032381460C27029347E78022002300254F
:1024C00012039946054C82E75C464B4602986FE73B
:1024D0005C464B46019502986AE7C046FF0700003C
:1024E00001FCFFFFA05C0000FFFF0F800DFCFFFF61
:1024F0004A464946170C1A0C1B041B0C0804190009
:10250000000C41431500884619007D43794303952B
:1025100089462900150045434D44029545462D0C3A
:10252000AA46029D5544A94506D98A4680214902FA
:102530008946CA4451460391290C04914146090435
:102540002D04090C88462900250C24044144240C40
:102550000591210041438846210079438A4668431A
:10256000414650448146080C48446F43824503D994
:102570008021490289464F44010C8946390049446B
:10258000029141460F0404993F0C88460004C0198B
:1025900080444146049159460F0C0904090C8846B1
:1025A00059438A4639005143894641464A43514678
:1025B000090C8B467B43D2185A44934203D980239B
:1025C0005B029B46D94451460904090C8A464146A0
:1025D00061437C43130C12044B445244A1468A4687
:1025E0003C0041466C434D4351464D440F0C7D1910
:1025F000A94503D98021490288464444049F039990
:10260000B84641448B468345804141428846514605
:1026100008042F04000C3F185846029910188946E8
:10262000904292414F44BA46524299469346C24420
:10263000D144CB448F42BF41C245894199459B411A
:10264000934592417F4249422D0C52420F435B42D7
:1026500013437F19FF185B463C19DB0D059A640292
:102660001C43430213435D1EAB415A46C00D034356
:1026700052021343E20156D501205A080340134386
:10268000E207134364085A48604400284DDD5A07A6
:1026900009D00F221A40042A05D01A1D9A429B41E4
:1026A0005B42E4181300E20104D58020514AC000C7
:1026B00014406044504A904200DDE3E60125DB0807
:1026C00062071A436402019B9146220B4405640D84
:1026D0001D407CE6802259461203114208D0144264
:1026E00006D122431203120B45469946434C6EE62F
:1026F0005B461A431203120B404C68E60300544633
:10270000283B9C400023B9E600F01AFD2030A6E6E5
:102710000300283B9F400023BB4699468AE600F011
:102720000FFD203074E6B446ADE701252A1A382A99
:1027300006DD019B00241D4000230022994646E649
:102740001F2A21DC20252000AD1A1E00AB40A84026
:10275000D6405D1EAB4130431843D440430709D0F7
:102760000F230340042B05D00300181D98429B4102
:102770005B42E418230221D50125019B01241D4061
:1027800000230022994622E61F2521006D42281AC7
:10279000C1400800202A1DD05F35AA1A9440234367
:1027A0005C1EA341072503431D400022002D09D0D4
:1027B0000F2200241A401800042AD6D1030065070E
:1027C0006402220BDB082B4301259946019B002460
:1027D0001D40FCE50024E2E780220125120322438C
:1027E00001991203120B0D409946044CEFE5C046C7
:1027F000FF030000FFFFFFFEFE070000FF070000D1
:10280000F0B54646D6464F460C03C0B5CD0F4E0038
:10281000610A440F0C43C1005800400D84468A46AB
:102820000F001903500F490A0143C648760DA84608
:10283000DB0FD200844500D1D8E001204340AB42F9
:1028400000D1A6E06046351A002D00DC05E1002825
:1028500010D10B00134300D1D7E06B1E002B00D02A
:102860004BE153469F1ABA458041641A4042241AEC
:1028700001261EE0B34B9E4248D080231B0419431F
:10288000382D00DD19E11F2D00DD4CE120230F0064
:102890005B1B10009A409F40E840531E9A41E9405C
:1028A000074317435346DF1B611ABA45A4416442EC
:1028B0000C1B230200D4C5E06402650A002D00D180
:1028C000F6E0280000F03CFC0300083B1F2B00DD75
:1028D000E9E020223C00D21A9D40D4409F4025438D
:1028E0009E4200DDDBE09E1B731C1F2B00DD0AE116
:1028F00020223800D21A290097402C009140D8405D
:102900007A1E9741DC40002601430F437B0709D024
:102910000F233B40042B05D03B1DBB42BF417F42F0
:10292000E4191F00230225D5864B01369E4200D1B3
:10293000AFE0854B01251C4043466207FF08640257
:1029400076051743240B760D1D4000212403230B2D
:102950000C0D7E4A24051C431440330523435B00C1
:10296000ED075B082B43380019001CBC90469946C4
:10297000A246F0BD012543466207FF081743E4085D
:102980001D40704B9E4236D024037605240B760DF5
:10299000DBE76346F31A002B00DC94E06046002876
:1029A00035D068488642B1D080273F043943382B60
:1029B00000DCFDE00A43170000217A1E97415744CE
:1029C00057458041091944420C1923023AD55D4B01
:1029D00001369E4200D14BE101225B4B1C407B083B
:1029E00017401F43E207174364088FE708001043AE
:1029F00000D024E721E723003B4300D1B9E1802246
:102A0000120314432403240B9FE72E007EE70800E3
:102A1000104300D1CAE0581E8446002800D0E7E0E9
:102A20005244524580416418404224181700012640
:102A3000230207D50226CFE764462C4300D1B3E139
:102A40002C0067467B0700D062E76307FF081F433F
:102A500001254346E4081D4093E7002D78D1751CFD
:102A60006D056D0D012D00DCF2E05046801A8245A7
:102A7000BF41651A7F42ED1B8446280200D48CE0DA
:102A80005046171ABA4292410C1B5542651B984694
:102A900014E70125434600241D40002755E72A4C32
:102AA000F61A2C4032E73D0028388540002717E70A
:102AB000380000F045FB203006E70A4317000021EC
:102AC0007A1E9741EEE6002B00D0E5E0731C9C4691
:102AD0005B055B0D012B00DC9FE01A4B9C4500D190
:102AE000C5E0524452458041641840422418E7072B
:102AF000520817436408664608E71248854200D129
:102B000085E01D00BCE629001F3EF140202B00D1CE
:102B10007FE04022D31A9D402F437D1EAF41002409
:102B20000F4300268EE72B000F00203BDF40202DB7
:102B300071D040235D1BA9400A43511E8A410021E8
:102B40001743AFE6FF070000FFFF7FFFFFFF0F8087
:102B5000002E3ED0B34EB44545D0802636046D429B
:102B60003443382D00DDA8E01F2D00DD1FE12026B5
:102B700027005046761BB740E84007435046B04018
:102B8000461EB041EC403843171ABA4292410C1B22
:102B90005242A41A664698468BE6644667462C4322
:102BA00000D08BE6002500260027EAE61E00ADE6F1
:102BB0001F2B60DC2027F81A0F0084468740100086
:102BC000D840074360468240501E8241D940174397
:102BD000F5E626005046064305D0ED43002DD3D040
:102BE000904EB445BDD10C001700664698468DE660
:102BF0008C4883420BD06346D9E6002D00D096E086
:102C00000800104300D1E2E00C0017009846854E02
:102C10007CE6002580E700218EE723005046034331
:102C2000002E00D0A8E0002B00D1DEE00B00134303
:102C300000D16BE65244524580416418404224184A
:102C40001700230200D4FDE6774B66461C405DE684
:102C5000250050460543002ECFD1002D4FD10C004A
:102C6000144300D1A0E00C00170098464EE66646DB
:102C70000024002785E61F000800203FF8400700D9
:102C8000202B00D18EE04020C31A99400A43511EE8
:102C90008A410021174392E6002E14D126005046A7
:102CA000064362D0DB43002B5CD1871897429241E8
:102CB00064185242A418664687E650462043441ED4
:102CC000A041002460E7574EB4454ED0802636041C
:102CD0005B423443382B00DD7FE01F2B00DD8BE0AF
:102CE000202627005046F61AB740D84007435046E2
:102CF000B040461EB0410743DC40BF18D6E70D0088
:102D0000154300D102E65046801A8245BF41651A3C
:102D10007F42ED1B8446280200D48DE65046171AE8
:102D2000BA4292410C1B5242A41A9846EEE50D009D
:102D3000154300D16BE750466707C0080743802062
:102D4000E4080003044207D0CD08054204D12C005A
:102D50009846D70849070F437B0FE4001C43FF0048
:102D6000304ED3E52F4EB445B4D10C001700664663
:102D7000CCE500270024E8E5002B39D00B001343F5
:102D800000D144E7C008670707438020E408000338
:102D90000442E1D0CB080342DED1D70849070F43F4
:102DA0001C00D9E7002171E700250027E9E52E0086
:102DB0002700203EF740202D2FD04026751BAC4029
:102DC00050462043441EA04100243843DCE68024C2
:102DD00000252403134E0027D3E550462043070067
:102DE000781E87410024BF1860E70C0017008DE5AE
:102DF0000C0017000B4E89E51E002700203EF7400F
:102E0000202B0CD04026F31A9C4050462043441EF1
:102E1000A04107430024BF1848E70024D0E700245E
:102E2000F3E7C046FF070000FFFF7FFF30B5134DFB
:102E30000A034B00120B5B0DC90F0024AB4210DDDF
:102E40000F4CA3420FDC80240E4D64032243ED1A85
:102E50001F2D0BDD0C48C31ADA405442002900D163
:102E60001400200030BD094BCC18FAE7084CE840AC
:102E7000A44663449A400243EFE7C046FE030000C5
:102E80001D0400003304000013040000FFFFFF7F57
:102E9000EDFBFFFF70B5002830D0C317C4185C40AD
:102EA000C50F200000F04CF9174B184A1B1AD21A14
:102EB0001F2A18DD164AD21A9440002224035B050B
:102EC000240B5B0D0021100024030A0D240B1205B6
:102ED0002243104C1B05224013435B00ED075B08A7
:102EE0002B43190070BD210091400A000B21081AE4
:102EF000C4405B052403240B5B0DE3E7002500239E
:102F000000240022DEE7C0461E0400003304000057
:102F100013040000FFFF0F8010B5041E28D000F03E
:102F20000FF9154B154A1B1AD21A1F2A15DD144A20
:102F3000D21A9440002224035B05240B5B0D002170
:102F4000100024030A0D240B120522430D4C1B050F
:102F5000224013435B00590810BD210091400A0034
:102F60000B21081AC4405B052403240B5B0DE6E724
:102F7000002300240022E2E71E04000033040000C6
:102F800013040000FFFF0F804100090E4B1C70B5B9
:102F9000DBB24602750AC40F012B14DDE0239B004F
:102FA0006D07360BCB1800210A0D280012051C4DA9
:102FB00032435B052A405B0813435B00E4075B0870
:102FC0002343190070BD002914D1002D1ED0280004
:102FD00000F0B6F80A281CDC0B232A001B1ADA4082
:102FE000030015339D400F4B12031B1A5B05160B94
:102FF0005B0DD8E7002D06D0320B802636036D0717
:103000001643094BCFE7084B0026CCE700230026E8
:10301000C9E703002A000B3B9A400025E3E7C046BE
:10302000FFFF0F8089030000FF070000F0B54C0090
:10303000640D0B03621C450F5B0A52052B43C90F3D
:10304000C500520D012A28DD3A4AA618FE2E1BDCC7
:10305000002E3EDD80010200501E82416D0F2A438A
:10306000DB0013435A0704D00F221A40042A00D071
:1030700004338022D2041A405AD00136FF2E03D0E6
:103080009B015B0AF4B201E0FF2400235802E4052F
:10309000400AC90720430843F0BD002C07D01D4358
:1030A000F2D08020DB0080040343FF26DAE72B43C5
:1030B00003D00523DB08FF2C03D05B025B0AE4B2DC
:1030C000E4E7002B32D08020C00303435B025B0A9D
:1030D000DCE73200173214DB80221E271204134370
:1030E000BF1B1F2F0FDC144A944664442A00A540DE
:1030F0002E00A340751EAE41FA4033431343002611
:10310000B0E70024D5E702225242961B1A00F24093
:10311000202F09D0094884466444A3402B435D1EF8
:10312000AB41002613439DE70023F7E70023ADE7FB
:103130003400BFE780FCFFFF82FCFFFFA2FCFFFF23
:103140001C2101231B04984201D3000C10391B0AD7
:10315000984201D3000A08391B09984201D300099B
:10316000043902A2105C40187047C04604030202F2
:1031700001010101000000000000000070B5002600
:103180000C4D0D4C641BA410A64209D1002602F080
:1031900007FF0A4D0A4C641BA410A64205D170BD5E
:1031A000B300EB5898470136EEE7B300EB58984769
:1031B0000136F2E7AC5F0000AC5F0000AC5F0000DE
:1031C000B05F000003008218934200D1704719706D
:1031D0000133F9E7F0B58BB014001D1E129953DAD4
:1031E000802424061B191D0014002D230B7020239E
:1031F000149E03229E43462E07D03300453B59427E
:103200004B411099013ACB18109309AB049308ABCA
:103210000393139B00920293109B220001932B00B7
:1032200000F070FE0700472E02D1119BDB0724D56A
:10323000109BFB180793462E14D13B78302B0CD1F2
:103240000022002320002900FDF72CFE002804D1D5
:103250000123109A9B1A139A1360139B079A1B68F9
:10326000D31807930022002320002900FDF71AFE3F
:10327000302200280DD0079B09933800099B159A2E
:10328000DB1B13600BB0F0BD0023AFE7591C0991A5
:103290001A70099B07999942F8D8EEE7F0B52B23ED
:1032A00085B007000C000270861C002901DA2D236E
:1032B0004C427B70092C23DD02ABDD1D6B1E200010
:1032C0000A210193FDF714FB6B1E303119702000A9
:1032D0000A21FDF7D6FA040009280ADC023D303441
:1032E0002C7002AB07333000AB4204D8C01B05B0D2
:1032F000F0BD019DE2E72B78013533700136F0E730
:103300003023E4183370B01C7470EFE7F0B595B05B
:103310000C000A920B931A9D099001F069FD036855
:1033200018000D9300F096FC0023129323680E9072
:103330000C930C99277E2B680722C90547D59B184B
:1033400093431A0008322A601A685B68A264E36437
:103350000122E56CA66C6B005B080F935242A74BF1
:1033600030000F9902F0B0FB002800D006E20122E5
:10337000A24B524230000F99FDF7A4FD002800D067
:10338000FCE10022002330002900FDF791FD002818
:1033900003D023002D2243331A70994D472F00D8B4
:1033A000984D032300260C9A236101339A4322602F
:1033B0000B9B13AA009321000A9B099800F0F2F9D5
:1033C000431C00D09CE00120404215B0F0BD073303
:1033D000B6E780236268DB00511C45D1073262608A
:1033E0000C9A0021134312AA059211AA03922322D8
:1033F00023600691019308A9636852180292009312
:1034000032002B0004970998FFF7E4FE20233A00CE
:1034100005009A43472A07D1119BDA1C02DB626838
:1034200093425BDD023FFFB21199652F3BD820002C
:1034300001393A0050301191FFF730FF129A06001F
:1034400083182361012A02DC2268D20701D50133E7
:103450002361232308AA9B181B78002BA8D02300E4
:103460002D2243331A70A3E7672F01D0472FB7D11E
:10347000002A16D00C9908A80B430021069112A926
:10348000059111A90391232109182360019300924A
:103490002B000497029132000998FFF79BFE05006C
:1034A000BAE701229BE7662F19D1636800290CDD7A
:1034B0002161002B02D12268D20702D501335B18AB
:1034C0002361119B0026A365C3E7002B03D10122D2
:1034D0002168114200D09A1C2261F2E76727119BF4
:1034E0001298834205DB22682361D207E9D50133B4
:1034F000E6E70122002B01DC9218D21A1218EBE742
:103500002268530508D423692A000A9909980B9D5B
:10351000A847431C29D156E7652F00D8DCE0A06CF2
:10352000E16C00220023FDF7BDFC002835D001230B
:10353000354A0A9909980B9DA847431C00D142E7D8
:10354000119B129A934202DB2368DB070DD50B9D7A
:103550000E9B0D9A0A990998A8470025431C00D193
:1035600031E7129B013B9D420BDB236800259B0743
:1035700000D5FDE0139BE068984200DB25E71800CA
:1035800023E7220001231A320A9909980B9EB047BB
:10359000431C00D117E70135E3E7119B002B35DC15
:1035A0000123194A0A9909980B9EB047431C00D180
:1035B00009E7119B002B05D1129B002B02D1236838
:1035C000DB07D2D50B9E0E9B0D9A0A990998B0473E
:1035D0000026431C00D1F6E6119B5B429E4201DBB4
:1035E000129B91E7220001231A320A9909980B9F36
:1035F000B847431C00D1E6E60136EDE7FFFFEF7F59
:10360000E85C0000E45C0000F45C0000A36D129E26
:103610009E4200DD1E00002E35DC00230C93F34398
:10362000DB170F930F9BA76D0C9A3340FB1A9A423E
:1036300032DB119B129A93423CDB2368DB0739D4BF
:10364000129E119AF31BB61A9E4200DD1E00002E38
:1036500039DCF7430025FB170C93119A129B0C9948
:103660009B1A32000A409B1A9D4200DB7DE7220034
:1036700001231A320A9909980B9FB847431C00D1BD
:10368000A1E60135E9E733002A000A9909980B9F62
:10369000B847431CC1D196E6220001231A320A9989
:1036A00009980B9FB847431C00D18CE60C9B013353
:1036B0000C93B7E70E9B0D9A0A9909980B9EB04799
:1036C000431CBDD17FE6EA1933000A9909980B9D86
:1036D000A847431CBDD176E6129B012B02DC0123D7
:1036E0001A4238D001232A000A9909980B9FB8473B
:1036F000431C00D167E60E9B0D9A0A9909980B9F0F
:10370000B847431C00D15EE6A06CE16C00220023A8
:10371000FDF7C8FB002808D00025129B013B9D4205
:103720000DDB220033005032EFE6129B6A1C013B96
:103730000A9909980B9DA847431CF2D143E6220041
:1037400001231A320A9909980B9FB847431C00D1EC
:1037500039E60135E1E72A00EAE7220001231932C0
:103760000A9909980B9EB047431C00D12BE60135FE
:10377000E368139A9B1A9D42EFDBFBE632002B00B5
:103780003000290002F0A0F9002800D121E6034D05
:10379000472F00D905E6024D03E6C046F05C000065
:1037A000EC5C0000F7B5150001938A680B69009086
:1037B0000C00934200DA130022002B60433212788F
:1037C000002A01D001332B6023689B0602D52B68A9
:1037D00002332B60062723681F4027D02300433382
:1037E0001B785A1E93412268920630D42200019918
:1037F00043320098089EB047431C25D0062320681A
:103800002A68E16803400025042B03D18D1AEB439D
:10381000DB171D40A3682269934201DD9B1AED1856
:103820000027BD4220D1002010E00137E3682A685C
:103830009B1A9F42D2DA2200012319320199009883
:10384000089EB047431CF0D101204042FEBD30200D
:10385000E1184331087021005A1C45310978A2183B
:10386000433202331170C1E7220001231A32019959
:103870000098089EB047431CE6D00137D1E700000E
:10388000F0B58BB006920A0043320793059004927C
:103890000A7E0C00109B6E2A00D18FE017D8632A95
:1038A0002CD008D8002A00D199E0582A54D02600FC
:1038B0004236327029E0642A01D0692AF7D12168A2
:1038C0001A68080623D5111D1960156825E0732AAA
:1038D00000D188E008D86F2A29D0702AE7D12022A9
:1038E00009680A43226003E0752A20D0782ADED1D5
:1038F00022007821453211706C4A30E00E001A68BF
:103900004236111D196013683370012379E04906AE
:10391000D9D5111D19600023D55E002D03DA2D23A2
:10392000049A6D421370624B0A2703932FE02068BC
:103930001968050603D5081D18600D6805E04006E6
:10394000F9D50D68081D1860ADB2594B08270393CF
:103950006F2A18D00A2716E045310A70544A03929C
:103960001A682168101D18601568080622D5CB0753
:1039700002D52023194321601027002D03D12023D5
:1039800022689A4322602300002243331A7063683E
:10399000A360002B5CDB0422216891432160002D91
:1039A00058D1049E002B64D02600039B42361B781E
:1039B00033705EE04806DAD5ADB2D8E709681A6818
:1039C000080605D5111D1960136862691A6006E0C2
:1039D0004906F7D5111D19601368A28A1A800023C1
:1039E000049E236154E01A68111D196016680021B5
:1039F0006268300001F07EFA002801D0801B606010
:103A0000636823610023049A137041E02369320044
:103A100006990598079DA847431C43D023680025B5
:103A20009B070FD4099BE06898423DDA18003BE001
:103A300022000123193206990598079EB047431CBE
:103A400030D00135E368099A9B1A9D42F0DBE9E723
:103A5000002DA9D0049E28003900FCF767FF039BC6
:103A6000013E5B5C280033703900FCF725FF051E22
:103A7000F1D1082F09D12368DB0706D563682269D5
:103A8000934202DC3023013E3370049B9B1B236175
:103A9000079B09AA00932100069B0598FFF782FE69
:103AA000431CB3D1012040420BB0F0BD075D0000C4
:103AB000F65C00000FB40B4B13B51C68002C05D04E
:103AC000A369002B02D1200001F0FCF805AB049A99
:103AD000A1682000019301F0E1FD16BC08BC04B010
:103AE0001847C046000000204A424A41802310B5D2
:103AF0005200DB0000F002F810BD0000F0B51D0020
:103B00004F4B85B01E6804000F000092002E05D0B8
:103B1000B369002B02D1300001F0D4F8494B9C422C
:103B200050D17468009B022B05D0012B00D984E092
:103B3000002D00DA81E02100300001F055F8616BC2
:103B4000002908D023004433994202D0300001F00C
:103B5000D5FC002363630023A3616360A3891B0674
:103B600003D52169300001F0C9FCA389364A13400E
:103B7000A381009B022B5AD003AB02AA2100300084
:103B800001F042F9A3891843A081002D24D1029DA0
:103B9000280001F0A5F90195071E42D1029B01936F
:103BA000AB4239D1012040420223A2891343A381B1
:103BB0000023A36023004733236023610123636153
:103BC00005B0F0BD214B9C4201D1B468AAE7204B5F
:103BD0009C42A7D1F468A5E7002FD9D0B369002B88
:103BE00002D1300001F06EF8009B012B03D1A389B4
:103BF000009A1A43A2810820A38927602761656182
:103C0000184018D0012018400023984211D06D426E
:103C1000A360A5611800D3E7019801F061F9071EC0
:103C2000C0D08023A289019D1343A381D6E7002041
:103C3000BAE7A560C4E7A060C2E701204042BFE741
:103C400000000020485D00005CF3FFFF685D00009D
:103C5000285D00000023C25C0133002AFBD1581EFE
:103C600070470000F8B505000E001400002804D0CD
:103C70008369002B01D101F025F8224B9C422DD104
:103C80006C68A369A360A3891B0731D52369002B46
:103C90002ED023682269F7B2981A6369F6B2984267
:103CA00005DB2100280000F09FFF002826D1A36833
:103CB0000130013BA36023685A1C22601F706369B6
:103CC000984204D0A389DB071AD50A2E18D1210007
:103CD000280000F089FF002812D00FE00A4B9C4218
:103CE00001D1AC68CDE7094B9C42CAD1EC68C8E76A
:103CF0002100280000F00CF80028CAD001267642E6
:103D00003000F8BD485D0000685D0000285D0000DF
:103D1000364B70B51D6806000C00002D05D0AB6950
:103D2000002B02D1280000F0CDFF314B9C420FD177
:103D30006C680C23E25E93B219072DD4D90611D416
:103D400009230120336037331343A381404270BD00
:103D5000284B9C4201D1AC68EBE7274B9C42E8D151
:103D6000EC68E6E75B0713D5616B002908D02300F8
:103D70004433994202D0300001F0C0FB002363635A
:103D80002422A3899343A3810023636023692360D2
:103D90000823A2891343A3812369002B0BD1A021FF
:103DA0008022A389890092000B40934203D0210016
:103DB000300001F051F80123A289134011D00023F3
:103DC000A36063695B42A361002023698342BED183
:103DD0000C23E25E1306BAD540231343A3810138B6
:103DE000B5E7920700D46369A360EDE70000002007
:103DF000485D0000685D0000285D0000F0B50369C3
:103E00000C6989B00700059100269C426DDC0B000F
:103E1000013C1433A50003935B190493030014338E
:103E200002935D19049B28681B68591C0193FCF7D9
:103E300043FD0190B0422DD0039B02989C4606960C
:103E4000624608CA9446019A99B251431B0C5343E7
:103E500089190A0C9B18079302881E0C069B89B2CD
:103E6000D2180368521A190C6B469B8BCB1A11148B
:103E70005B18191492B21B041A43049B069104C0E8
:103E80006345DDD22B68002B04D1029B043DAB427D
:103E90002ED33C610599380001F051FA002823DB4C
:103EA0000025019B029801330399019308C90288F8
:103EB00055199AB2AA1A05681B0C2D0CEB1A151489
:103EC0005B191D1492B21B04134308C0049B8B4260
:103ED000ECD2029AA300D3181A68002A04D1029ADD
:103EE000043B9A4209D33C61019E300009B0F0BD09
:103EF0002B68002BCDD1013CC7E71A68002AF2D10C
:103F0000013CECE7F0B516001F00446A9DB0049038
:103F1000259D06960797002C08D1102000F0E0FFA1
:103F2000049B5862446084600460C460049B5B6AC4
:103F3000196800290BD05A68012393404A608B60AE
:103F4000049801F023F80022049B5B6A1A60079B27
:103F5000002B1FDA01232B607B005B080793079C73
:103F6000B74B220019931A409A4216D1B54B249AA6
:103F70001360069B002B03D1240301D100F091FDB7
:103F8000B14B269A0A93B14B002A01D000F08FFD65
:103F900000F08FFD00232B60E1E7069E079F0022C3
:103FA000002330003900FCF77DFF051E0ED00123F1
:103FB000249A1360A64B269A0A93002A01D100F096
:103FC00078FDA44A26990A6000F073FD1AAB0193AC
:103FD0001BAB009332003B00049801F02DFA630004
:103FE00005905B0D00D17FE03A039B4C120B14430C
:103FF00021009A4A300018959E180022984BFEF72F
:10400000FFFB984A984BFEF77BF9984A984BFDF7CF
:1040100033FA040030000D00FEF73CFF954A964B42
:10402000FEF76EF902000B0020002900FDF724FACC
:1040300004000D00FEF7FAFE00220390002320008A
:104040002900FCF735FF00280ED00398FEF722FF69
:104050000B00020029002000FCF724FF0300584257
:104060005841039B1B1A039301231693039B162BA2
:104070000FD88249DB00C91808684968069A079B6F
:10408000FCF72AFF00284BD0039B013B039300233E
:1040900016931A9B9E1B00230B933300013B0C933A
:1040A00004D501239B1B0B9300230C93039B002B34
:1040B00038DB039A0C9B944663440C9300230F92C5
:1040C0000893229B0125092B00D991E0052B02DDE5
:1040D0000025043B2293229B981E032800D991E0DF
:1040E00001F0E8FC828429761A9B1B9A9E18644B87
:1040F000F218202A0FDD634B0698F318D8404023AE
:104100009B1A9C402043FEF707FF01235E4C013EB3
:104110000919189371E7202306989B1A9840F2E733
:104120001690B6E70B9B039A9B1A0B935342089386
:1041300000230F93C5E701230E93239B002B65DD1E
:104140001F000D93049A546A002262600432110029
:10415000143199425FD96168049800F0DFFE049B36
:1041600020605B6A1B680A930E2F00D905E1002DC1
:1041700000D102E1069B079C14931594039B002B2E
:1041800000DC85E01A000F213C4B0A40D2009B184E
:104190005C681B6810931194039B02241D11EB06AD
:1041A0000AD53A4B0D401A6A5B6A14981599FDF7C7
:1041B00073FC069007910134344E002D30D1109AD3
:1041C000119B06980799FDF767FC069007917AE026
:1041D0000123239A0E939446039B63445F1C0D9323
:1041E0003B1EAFDC0123ADE70023A5E70023F0E78A
:1041F00000230E952293013B00220D931F001333E1
:1042000023929FE701230E93023BF5E701230D93D1
:104210001F001A00F4E7616852000131616096E7FF
:1042200001231D4208D010981199E4183268736870
:10423000FEF766F8109011916D100836BDE7C04684
:104240000000F07F0F270000215D0000245D0000CA
:10425000F45C0000F55C00000000F03F01FCFFFF93
:104260000000F83F61436F63A787D23FB3C8608BFC
:10427000288AC63FFB799F501344D33FB05D0000AE
:104280003204000012040000000010FE885D0000EF
:10429000039B0224002B16D0149815995D420F231E
:1042A000CA4A2B40DB00D3181A685B68FEF728F86F
:1042B000002306900791C64E2D11002D00D08CE0F2
:1042C000002B00D081E7169B002B00D191E0069ACD
:1042D000079B10921193109811990022BD4BFCF787
:1042E000E7FD002800D184E0002F00D181E00D9B84
:1042F000002B3EDD10981199039B00225E1EB64BE9
:10430000FDF7FEFF069007910D9D01342000FEF79A
:10431000C1FD069A079BFDF7F3FF0022AF4BFDF7A7
:10432000ABF812901391129B139CAD4A1093119409
:10433000139B9C181194002D5ED1069807990022BA
:10434000A84BFEF75DFA109A230006900791FCF740
:10435000C3FD002800D001E3A348139984466144BB
:104360000B0006980799109AFCF7A2FD002800D0D0
:10437000E8E2149B159C069307941B9B002B00DA24
:1043800057E1039A0E2A00DD53E1904BD2009B18AF
:104390005C681B6808930994239B002B00DBCEE02C
:1043A000002F00DDCBE000D0CFE208980999002271
:1043B0008C4BFDF7A5FF069A079BFCF797FD3E0087
:1043C0000897002800D0A4E20A9B0A9A5D1C3123BA
:1043D0001370039B013303939FE20122154205D022
:1043E000A41832687368FDF78BFF01236D1008363F
:1043F00063E7039E3D0089E70A9A691E52191792E6
:104400000E9A724BC900002A4AD05B181A685B6882
:1044100000207649FDF740FB109A119BFEF7F0F95A
:104420000A9B10901191129306980799FEF7FEFCD3
:104430000400FEF72FFD02000B0006980799FEF717
:10444000DFF9129B30345D1C1C70109A119B069092
:104450000791FCF72DFD002865D1069A079B0020E7
:104460005C49FEF7CDF9109A119BFCF721FD00285D
:1044700000D0BEE0179B9D4200D17AE710981199B9
:104480000022554BFDF73CFF002210901191069839
:104490000799514BFDF734FF129506900791C3E73A
:1044A000591808684968109A119BFDF729FF109068
:1044B00011910A9C179D06980799FEF7B7FC129078
:1044C000FEF7E8FC02000B0006980799FEF798F942
:1044D000129B0690079130332370179B0134002202
:1044E000A34224D1414B10981199FCF7C5FF02005B
:1044F0000B0006980799FCF7EFFC002800D078E045
:10450000109A119B00203949FEF77AF902000B003E
:1045100006980799FCF7CCFC002800D129E76B1E10
:104520001A78302A01D003963FE01D00F7E706987D
:104530000799294BFDF7E4FE06900791BBE70A9E19
:10454000089A099B06980799FDF7A6FAFEF76EFCF4
:104550000400FEF79FFC089A099BFDF7D1FE0B00B3
:10456000020006980799FEF74BF9230030333370A9
:104570000A9B751CEB1A9F424CD102000B00FCF702
:104580007BFF06000F0002000B0008980999FCF75A
:104590008FFC00282CD10898099932003B00FCF7C9
:1045A00081FC002801D0E30722D40599049800F08B
:1045B000EDFC00232B70039B249A01331360269B90
:1045C000002B00D175E21D6073E2C046B05D0000B3
:1045D000885D00000000F03F0000244000001C4007
:1045E0000000C0FC000014400000C07C0000E03F60
:1045F000039E6B1E1A78392A06D10A9A9A4207D16D
:1046000030231370130001361A7801321A708AE7CA
:104610001D00EEE70022CF4BFDF772FE00220023C3
:10462000069007912E00FCF73DFC002800D187E79B
:10463000BBE70E9A002A00D187E0229A012A6EDC9D
:10464000189A002A67D0C44A9B18089D0B9C0B9AA5
:104650000121D2180B920C9A0498D3180C9300F0F5
:1046600033FD0600002C0EDD0C9B002B0BDD0C9A9D
:104670002300944200DD13000B9AE41AD21A0B9225
:104680000C9AD31A0C93089B002B1ED00E9B002B68
:104690005FD0002D11DD31002A00049800F0ACFD40
:1046A000059A01000600049800F017FD0599109086
:1046B000049800F06BFC109B0593089B5A1B04D0D8
:1046C0000599049800F098FD05900121049800F0E8
:1046D000FBFC0F9B0890002B3DDD1A0001000498A5
:1046E00000F08AFD229B08900025012B3BDC002571
:1046F000069BAB4233D1079B1B03AB422FD1199BC7
:10470000079A13422BD00B9B013501330B930C9B63
:1047100001330C9323E036231A9A9B1A95E7089BE2
:104720007D1EAB4206DB5D1B002F0BDA0B9BDC1BF7
:1047300000238CE7089B0895EA1A0F9B00259B181D
:104740000F93F1E70B9C3B0081E7089D0B9C0E9EAD
:1047500088E7089AB4E7229B0025012BC7DD0F9B51
:104760000120002B0BD0089B089A1B690F93033381
:104770009B00D318586800F05EFC2023181A0C9B8D
:10478000C0181F23184000D1ABE001331B1A042BC3
:1047900000DC9BE01C23181A0B9B24181B180B939E
:1047A0000C9B1B180C930B9B002B05DD1A00059925
:1047B000049800F073FD05900C9B002B05DD1A009A
:1047C0000899049800F06AFD0890169B002B00D110
:1047D00089E00899059800F0B2FD002800DB82E02E
:1047E000039B0A22013B039305990023049800F0E0
:1047F000E6FB0E9B0590002B00D15DE1002331000C
:104800000A22049800F0DBFB0D9B0600002B02DC63
:10481000229B022B6DDC002C05DD31002200049868
:1048200000F03CFD06003000002D11D071680498A6
:1048300000F074FB3100040033690C319A1C9200C3
:104840000C3000F062FB01222100049800F026FDEC
:104850000D9F0A9B013F0B93DB19370006000F9356
:1048600008990598FFF7CAFA39000D9004000598D9
:1048700000F065FD32000E900899049800F078FD74
:1048800001230C93C36830340500002B04D10100D0
:10489000059800F054FD0C902900049800F076FB78
:1048A0000C9B229A134300D089E0069A01331342ED
:1048B00000D084E0392C00D1A3E00E9B002B01DD59
:1048C0000D9C31340B9B5D1C1C7027E0042B00D128
:1048D00069E70B9A1C33D2180B920C9AE418D31880
:1048E00060E70300F5E7002F3CDC229B022B39DD5B
:1048F0000D970D9B002B0CD108990522049800F010
:104900005EFB08900100059800F019FD002800DD0D
:104910005AE5239B0A9DDB430393002708990498DB
:1049200000F034FB002E00D13FE6002F05D0B74247
:1049300003D03900049800F029FB3100049800F0FE
:1049400025FB32E608952E00E3E7002308931E00BE
:10495000DFE7C046000024403304000003960895BA
:104960002E0031E50E9B0D97002B00D053E70A9DDA
:1049700008990598FFF742FA0A9B30300D9A287083
:1049800001350400EB1A9A4278DC151E00DC012583
:1049900000270A9B5D1905990122049800F07EFC0E
:1049A0000899059000F0CBFC00282FDC01D1E3072B
:1049B0002CD46B1E1A78302AB0D11D00F9E70E9B5B
:1049C000002B07DB1D00229B1D4326D10123069AE5
:1049D000134222D10C9B002B00DC73E705990122C6
:1049E000049800F05BFC0899059000F0A8FC0028F2
:1049F00004DC00D066E7E30700D463E7392C00D07D
:104A00005EE70B9B0B9A5D1C392313706B1E1A78A3
:104A1000392A3BD001321A7080E70B9B01330D938A
:104A20000C9B002B05DD392CEBD00D9D01340B9B2D
:104A30004AE70B9B0F9A0D9D1C709342ABD000234D
:104A40000A220599049800F0BAFA002305900A2278
:104A500039000498B74206D100F0B1FA0700060009
:104A60000D9B0B93FCE600F0AAFA3100070000232F
:104A70000A22049800F0A3FA0600F1E700230A22B4
:104A80000599049800F09BFA059071E70A9A9A42FA
:104A900005D1039B01330393312313703EE71D00BF
:104AA000B4E70A4B269A0A93094B002A01D0269AAA
:104AB00013600A981DB0F0BD0D9B002B00DD56E77A
:104AC000229B022B00DC52E713E7C046185D000072
:104AD000205D0000F7B58A8905000C00130760D43B
:104AE0004B68002B04DC0B6C002B01DC0020FEBDAE
:104AF000E76A002FFAD000232E682B6080235B0129
:104B00001A4034D0606DA3895B0706D56368C01A6C
:104B1000636B002B01D0236CC01A0200216A0023B2
:104B20002800E76AB847A189431C06D12B681D2BD2
:104B300031D82C4ADA40D3072DD50023636023698E
:104B40002360CB0405D5431C02D12B68002B00D178
:104B50006065616B2E600029C8D023004433994200
:104B600002D0280000F0CAFC00206063BFE70123E8
:104B7000216A2800B847431CC5D12B68002BC2D03E
:104B80001D2B01D0162B01D12E60AFE74023A28947
:104B90001343A381ABE740230B430120A381404291
:104BA000A5E70F69002FA1D00B680F60DB1B0193F5
:104BB0000023920700D14B69A360019B002B00DC0E
:104BC00094E7019B3A00216A2800A66AB0470028B2
:104BD00003DC4023A2891343DFE7019B3F181B1A24
:104BE0000193EAE7010040200B6970B505000C0055
:104BF000002B01D1002070BD002804D08369002B58
:104C000001D100F05FF80B4B9C4209D16C680C227B
:104C1000A35E002BEED021002800FFF75BFFEAE740
:104C2000054B9C4201D1AC68F1E7044B9C42EED1AC
:104C3000EC68ECE7485D0000685D0000285D00005E
:104C400010B5024900F0B2F810BDC046E94B0000B3
:104C5000002310B5040003604360836081814366D4
:104C6000C281036143618361190008225C30FEF751
:104C7000A9FA054B24626362044BA362044BE3620E
:104C8000044B236310BDC046F958000021590000B1
:104C9000595900008559000070B568254A1E5543D2
:104CA0000E002900743100F073FC041E08D00021AE
:104CB0002A00016046600C30A0606832FEF782FA7C
:104CC000200070BD836913B50400002B28D18364D4
:104CD000C3640365134B144A1B68826201939842B4
:104CE00001D101238361200000F020F860602000E2
:104CF00000F01CF8A060200000F018F80022E0602E
:104D000004216068FFF7A4FF01220921A068FFF7D2
:104D10009FFF02221221E068FFF79AFF0123A3619F
:104D200013BDC046E05C0000414C0000F8B51E4BCE
:104D300007001E68B369002B02D13000FFF7C2FFE5
:104D40004836B4687368013B04D53368002B07D03C
:104D50003668F6E70C22A55E002D0DD06834F2E728
:104D600004213800FFF798FF30600028F0D10C23B1
:104D700004003B602000F8BD012320005B42E3817A
:104D80000233A38165662560A56065602561656164
:104D9000A561082229005C30FEF714FA6563A5635B
:104DA000A564E564E6E7C046E05C0000F7B50400F2
:104DB0000700002601914834002C01D13000FEBDCF
:104DC0006368A5680093009B013B009301D52468AC
:104DD000F2E7AB89012B08D90E22AB5E013304D078
:104DE00029003800019B984706436835EBE700002F
:104DF000034B1B68186A002800D10248F030704746
:104E0000000000206400002070B50E001D000E237D
:104E1000C95E90B01400002907DA00232B60B38923
:104E20001B0611D48023DB000FE001AA00F0D6FDA1
:104E30000028F2DBF022029B12021340054A9B1865
:104E40005A4253412B60EDE740230020236010B00D
:104E500070BDC04600E0FFFFF7B502268B89050054
:104E60000C00334206D02300473323602361012323
:104E70006361F7BD01AB6A46FFF7C6FF0099070003
:104E8000280000F085FB002808D10C22A35E9A05BB
:104E9000EFD4032293431E43A681E4E70F4BAB629A
:104EA0008023A28920601343A381009B206163615A
:104EB000019B002B0DD00E23E15E280000F0A0FD29
:104EC000002806D00322A38993431A000123134329
:104ED000A381A0893843A081CBE7C046414C0000A4
:104EE00010B5034B0100186800F052FB10BDC0461E
:104EF00000000020C9B28218904201D10020704702
:104F000003788B42FBD00130F6E7002310B59A42BC
:104F100000D110BDCC5CC4540133F8E770B5466ACB
:104F200004000D00002E07D11020FFF7D9FF6062AA
:104F3000466086600660C660666AF368002B13D020
:104F4000636AAA00DB689B181868002818D1012141
:104F50000E00AE40721D9200200000F0C1FA002841
:104F60000CD0456086600DE021220421200000F075
:104F7000B7FA636AF060DB68002BE1D1002070BDF6
:104F800002681A6000230361C360F8E770B5446AE1
:104F900006000D00002C07D11020FFF7A1FF706262
:104FA000446084600460C460002D07D0736A6A683E
:104FB000DB6892009B181A682A601D6070BDF7B507
:104FC0001E0014239C4607000C0000200D698C4431
:104FD000634619881B6851431B0C534389190E0CF7
:104FE0009B1989B21E0C1B045B186146013008C175
:104FF0008C468542ECDC002E1BD0A3689D4212DB60
:1050000063683800591CFFF789FF2100236901906C
:105010009A1C92000C310C30FFF777FF210038000A
:10502000FFF7B4FF019C2B1D9B00E31801355E6068
:1050300025612000FEBD0300020C0020824201D148
:105040001B0410301A0E01D108301B021A0F01D1B7
:1050500004301B019A0F01D102309B00002B03DBAF
:1050600001305B0000D4202070470722036810B590
:1050700001001A400DD001240020234205D1023046
:10508000034203D0E34020000B6010BD9B080B607F
:10509000FBE79CB21000002C01D110201B0CDAB2EF
:1050A000002A01D108301B0A1A0701D104301B095C
:1050B0009A0701D102309B08DA07E8D45B0801D0D7
:1050C0000130E4E72020E0E710B50C000121FFF7F4
:1050D00025FF01234461036110BDF0B50B69150084
:1050E000126989B00C00934201DA2C000D00276987
:1050F0002E69A268BB1961680193934200DD0131FA
:10510000FFF70CFF030014330093009ABB19944679
:105110009B009C4413000022049063451CD32A008A
:105120001434BF00E3191432B600059393190294A6
:105130000693069B9A4211D3019B002B06DD0423A4
:105140005B429C4463461B68002B51D0049B019A30
:1051500018001A6109B0F0BD04C3DEE71488002C02
:105160001ED00026009D029F01CF079508CD039316
:1051700083B2634319006B46000C9B896043CB18D4
:1051800003999B19090C4118180C09180E0C9BB2B5
:1051900009040B4307990B60059BBB42E4D82E60C2
:1051A00013681B0C03931ED00026009B029C1B68F7
:1051B000009807002188039D9BB2694320C82D0CED
:1051C00049198E1931040B433B6008CC03991B0C21
:1051D0004B437968360C89B25B1805999B191E0CF4
:1051E000A142E6D80360009B043204330093A0E799
:1051F000019B013B01939FE70323F7B51340050093
:105200000E001400002B08D02249013B9A0052588E
:1052100000233100FFF7D3FE0600A310019336D020
:105220006C6A002C07D11020FFF75AFE68624460B8
:1052300084600460C4606F6ABC68002C07D11649A2
:105240002800FFF741FF00230400B860036001223B
:10525000019B13420AD0310022002800FFF73DFFD6
:10526000070031002800FFF791FE3E00019B5B1014
:1052700001930CD02068002807D1220021002800CB
:10528000FFF72BFF0023206003600400DFE73000FE
:10529000FEBDC046785E000071020000F0B50D0052
:1052A00017002B69541185B0E31802930133019361
:1052B0004968AB680390019A934234DB0398FFF787
:1052C0002DFE00230200060019001432A3422DDB3C
:1052D000E343DB171C402B001F21A40014192A698B
:1052E000143392009A180F4024D00131C91B8C4608
:1052F00000211868B84001436046216002CB0434A5
:10530000C1409A42F5D82160002902D0029B0233A5
:105310000193019B0398013B33612900FFF736FE9F
:10532000300005B0F0BD01315B00C4E798001150BA
:105330000133CBE702CB02C49A42FBD8E9E70A6902
:10534000036930B59B1A0ED19200143014318418C1
:105350008918043C043922680D68AA4205D0AA4283
:10536000924101231343180030BDA042F1D3FAE764
:10537000F0B50D0085B00700110028001400FFF7FC
:10538000DEFF061E08D101003800FFF7C7FD01232C
:105390004661036105B0F0BD01230193002804DBE1
:1053A00023002C001D000023019361683800FFF7E3
:1053B000B5FD2F000022019B2669C3601434B300A1
:1053C000E31802932B6914379B00FB180393030027
:1053D0009446143320CC04CF0192AAB294446A4676
:1053E000614692882D0C8A1A0199090C691A1514C4
:1053F00049190D1492B209040A431A60039AAC4683
:105400000433BA42E6D802991A008C4205D3043A12
:105410001368002B0ED00661BCE704CC91B2614446
:105420000D14120C5219151489B212040A43AC4619
:1054300004C3E8E7013EEAE7F7B51D000121089F34
:105440001400FFF76BFD2B036D0006001B0B6D0DA9
:1054500024D10193002C27D068460094FFF705FE65
:10546000009C00281ED0019B20211A00091A8A40A6
:10547000C340224372610193019CB461631E9C414D
:1054800001343461002D18D0124BED1835232D183E
:105490003D60181A099B18603000FEBD802252033F
:1054A0001343D6E77461E7E701A8FFF7DEFD0124A7
:1054B000019B346173612030E4E7074BC018074B50
:1054C0003860E3189B00F3185869FFF7B4FD6401D6
:1054D000201ADFE7CDFBFFFFCEFBFFFFFFFFFF3F03
:1054E0004A4370B51100140000F052F8051E03D0B5
:1054F00022000021FDF766FE280070BD70B5050092
:10550000002910D00C1F2368002B00DAE4182800B3
:1055100000F0AEFA1D4A1368002B05D163601460D9
:10552000280000F0A6FA70BDA34209D921686018CE
:105530008342F3D118685B6841182160EEE71300DD
:105540005A68002A01D0A242F9D919685818A04215
:105550000BD120680918581819608242E0D11068F0
:105560005268411819605A60DAE7A04202D90C2348
:105570002B60D5E721686018824203D11068526819
:105580004118216062605C60CAE7C046F4010020F7
:10559000032370B5CD1C9D43083506000C2D1ED28B
:1055A0000C25A9421DD8300000F062FA254A146883
:1055B0002100002919D1244C2368002B03D130008D
:1055C00000F088F920602900300000F083F9431CC6
:1055D0002CD10C233000336000F04BFA03E0002D97
:1055E000DFDA0C233360002070BD0B685B1B1AD41C
:1055F0000B2B03D90B60CC18256003E08C420ED135
:1056000063681360300000F034FA200007220B308A
:10561000231D9043C31AE7D05A42E250E4E74B6897
:1056200063600C00EEE70C004968C2E70323C41C6A
:105630009C43A042E0D0211A300000F04BF9431CFB
:10564000DAD1C6E7F4010020F8010020936810B514
:10565000013B9360002B05DA9469A34208DBCBB2CF
:105660000A2B05D01368581C10601970C8B210BD01
:10567000FEF7F8FAFBE7F8B506000F001400D5189E
:10568000AC4201D1002007E021783A003000FFF75A
:10569000DDFF0134431CF3D1F8BD0000F0B59FB02D
:1056A00006000F0014000593002804D08369002B26
:1056B00001D1FFF707FB7F4B9F425CD17768BB8925
:1056C0001B0762D53B69002B5FD0002306AD6B61E1
:1056D00020336B761033AB760294029C2378002B38
:1056E0005DD1029BE31A04930DD0049B029A39000A
:1056F0003000FFF7C0FF431C00D1CCE06A69049B77
:10570000944663446B612378002B00D1C3E00122EF
:10571000002352426A6002A95432521801342B60AD
:10572000EB60AB601370AB65217805226248FFF730
:10573000E1FB631C9C46002835D12968CB0604D5C3
:10574000532302AA20309B1818700B0704D553234B
:105750002B2002AA9B18187023782A2B2CD000200B
:105760000A21099B2278303A092A00D86BE00028E8
:105770002AD0099328E0514B9F4201D1B7689EE798
:105780004F4B9F429BD1F76899E739003000FEF7F5
:10579000BFFA002899D0012040421FB0F0BD252B50
:1057A0009FD001349AE7444B2968C01A01238340F3
:1057B0000B432B606446B7E7059B181D1B680590DB
:1057C000002B3ADB0993644623782E2B0BD16378A8
:1057D000621C2A2B3FD1059B02341A1D1B680592BF
:1057E000002B35DB0793217803223648FFF782FB35
:1057F000002807D0334B2A68C01A40238340134344
:105800002B6001342178631C06222F4802932976ED
:10581000FFF770FB002844D02C4B002B2FD12968B8
:10582000059B0722C90528D59B1893430833059388
:105830006B69039A9B186B614FE75B42EB60022335
:105840000B432B60BFE74B4301349B18012089E7D2
:1058500001235B42C6E7002314000A201A006B6094
:1058600021783039092903D9002BBCD00792BAE737
:105870004243013452180123F2E70733D5E705AB61
:1058800000933A00124B29003000FDF73FFD0390D2
:10589000039B0133CCD1BB895B0600D57BE70B981A
:1058A0007BE705AB00933A00094B29003000FDF778
:1058B000E7FFECE7485D0000845E0000685D0000E3
:1058C000285D00008A5E00008E5E00000D3300003F
:1058D00077560000002370B5064C050008002360D1
:1058E000FAF76EFE431C03D12368002B00D02B6017
:1058F00070BDC0460C02002070B50C000E25495F3B
:1059000000F0B8F8002803DB636D1B18636570BDF9
:10591000A389024A1340A381F9E7C046FFEFFFFFC6
:10592000F8B51F008B8905000C001600DB0505D5B6
:105930000E23C95E0022022300F074F8A389054AF1
:1059400028001340A38132000E23E15E3B0000F0EB
:105950001FF8F8BDFFEFFFFF70B50C000E25495F83
:1059600000F060F8A389421C03D1054A1340A381CB
:1059700070BD802252011343A3816065F8E7C046E1
:10598000FFEFFFFF10B50E23C95E00F015F810BD44
:1059900070B50500080011000022064C22601A00B4
:1059A000FBF712FA431C03D12368002B00D02B60B5
:1059B00070BDC0460C020020002370B5064C0500E7
:1059C00008002360FAF70EFE431C03D12368002B66
:1059D00000D02B6070BDC0460C020020002370B5C3
:1059E000064C0500080011002360FAF7FEFD431C79
:1059F00003D12368002B00D02B6070BD0C02002067
:105A0000002370B5064C050008002360FAF7F2FD8C
:105A1000431C03D12368002B00D02B6070BDC0460F
:105A20000C02002070B50500080011000022064C91
:105A300022601A00FAF7E0FD431C03D12368002B13
:105A400000D02B6070BDC0460C02002082B000293F
:105A500000D101A9101E06D0002B06D013780B60D0
:105A60001078431E984102B0704702204042FAE786
:105A70007047704770B50500080011000022064C01
:105A800022601A00FBF78CF9431C03D12368002B1A
:105A900000D02B6070BDC0460C0200200B1E04D04D
:105AA000FF2A04D98A2303608B3B180070470A70D1
:105AB0000123FAE702B4714649084900095C49002C
:105AC0008E4402BC7047C04670B50E4E0D031C03D9
:105AD00049005B002D0B490D240B5B0DB14204D036
